:020000040800F2
:10000000000E002005010008731000086F0F0008A3
:1000100071100008C70100082B1300080000000041
:100020000000000000000000000000007710000841
:10003000C9010008000000007510000879100008D0
:100040001F0100081F0100081F0100081F01000810
:100050001F0100081F0100081F0100081F01000800
:100060001F0100081F0100081F0100081F010008F0
:100070001F0100081F0100081F0100081F010008E0
:100080001F0100081F0100081F0100081F010008D0
:100090001F0100081F0100081F0100081F010008C0
:1000A0001F0100081F0100081F0100081F010008B0
:1000B000DD100008E91000081F0100081F010008FA
:1000C0001F0100081F0100081F0100081F01000890
:1000D0001F0100081F0100081F0100081F01000880
:1000E0001F0100081F0100081F010008DFF810D0E1
:1000F00000F02CF8004800476D130008AFF30080B3
:10010000000E00200648804706480047FEE7FEE74D
:10011000FEE7FEE7FEE7FEE7FEE7FEE7FEE7FEE7B7
:10012000DB100008ED000008D2B201E000F8012B5E
:10013000491EFBD270470022F6E710B513460A4667
:1001400004461946FFF7F0FF204610BD064C074D48
:1001500006E0E06840F0010394E807009847103497
:10016000AC42F6D3FFF7C6FFA8130008C813000877
:1001700070B58C1810F8015B15F0070301D110F869
:10018000013B2A1106D110F8012B03E010F8016B96
:1001900001F8016B5B1EF9D12B0705D40023521E19
:1001A0000DD401F8013BFAE710F8013BCB1A921C81
:1001B00003E013F8015B01F8015B521EF9D5A1427F
:1001C000D8D3002070BDFEE7704772B6FEE700008E
:1001D0002DE9F84FDFF8B891002409F1040A0AF17B
:1001E000040B23460F270BF1040EC9E00125A5409F
:1001F0002A40AA427DD1674ED1F804C0ACEB060874
:10020000B44532D014DCBCF1030F3AD009DCBCF1A8
:10021000000F2AD0BCF1010F1CD0BCF1020F31D16C
:100220001DE0BCF1110F17D0BCF1120F2AD119E05B
:10023000B8F5881F19D006DCB8F5803F15D0B8F5A1
:10024000801F1FD111E0B8F5001F0ED0B8F5041FB4
:1002500018D10AE0CB6815E0CB681B1D12E0CB6813
:1002600008330FE0CB680C330CE08B682BB1012B0B
:100270004FF0080303D0456104E0042302E0056168
:1002800000E00023FF2A01D8064601E000F1040641
:100290004FEA840501D9A5F12005D6F8008007FAB8
:1002A00005FC28EA0C0803FA05F548EA0508C6F833
:1002B00000804D68ED0062D5374DAE6946F001060D
:1002C000AE61AD6924F0030605F001050095334DDC
:1002D00006EB050CDCF80850A607360F07FA06F8FF
:1002E00025EA0805DFF8B880404503D14FF0000843
:1002F00017E044E0DFF8AC80404502D14FF0010840
:100300000FE0DFF8A480404502D14FF0020808E07A
:10031000DFF89880404502D14FF0030801E04FF02C
:10032000040808FA06F848EA0508CCF808804D6881
:10033000D9F80060ED034D4601D5164300E0964321
:100340002E604D68DAF80060AD03554601D51643BE
:1003500000E096432E604D68DBF80060ED025D46DC
:1003600001D5164300E096432E604D68DEF800602C
:10037000AD02754601D5164300E096432E60641C1D
:100380000D682A46E5407FF431AFBDE8F88F0000E4
:100390000004014000001110001002400000014064
:1003A00000080140000C0140001001400014014011
:1003B0000148806870470000000000200248816802
:1003C000027811448160704700000020074810B592
:1003D000016841F010010160032000F075F8002071
:1003E00000F006F800F024F8002010BD00200240C4
:1003F00070B50D4D04464FF47A712878B1FBF0F0DA
:100400000A490968B1FBF0F000F0CCFA48B9102CA9
:1004100007D200222146501E00F036F800206C6002
:1004200070BD012070BD0000000000200C00002005
:100430000C4808B5816941F001018161816901F0D1
:1004400001010091C16941F08051C161C06900F0B2
:10045000805000900448416821F0E06141F0007153
:10046000416008BD0010024000000140002809DB87
:1004700000F01F02012191404009800000F1E020BE
:10048000C0F8001170470000F0B40E4B1B680C461A
:10049000C3F30223C3F10705042D00D90425191D58
:1004A000072901D2002300E0DB1E012606FA05F130
:1004B000491E214099409E40761E16403143F0BCB3
:1004C00000F034BF0CED00E0064900F007020868B8
:1004D0004FF6FF03184040EA0220034A1043086029
:1004E000704700000CED00E00000FA052DE9F04730
:1004F0000F46050061D0434E306800F00700B84257
:1005000009D2306820F0070038433060306800F0CE
:100510000700B84251D128683B4C810712D54007EB
:1005200003D5606840F4E06060602878000703D578
:10053000606840F4605060606068A96820F0F00076
:10054000084360602878C00728D06868012810D068
:100550002168022810D0890700292EDA616821F06D
:10056000030101436160FFF723FF804641F28839B0
:100570000DE021688903EFE78901EDE7FFF718FF38
:10058000A0EB0801494502D90320BDE8F087606867
:10059000696800F00C00B0EB810FEFD1306800F01B
:1005A0000700B8420BD9306820F0070038433060AC
:1005B000306800F00700B84201D00120E5E7287854
:1005C000400705D56068E96820F4E0600843606092
:1005D0002878000706D56068296920F4605040EA51
:1005E000C100606000F018F86168084AC1F30311A7
:1005F000515CC8400649086006480068FFF7F8FEED
:100600000020C2E7002002400010024098130008BA
:100610000C0000200400002012A185B00FC98DE855
:100620000F0014A0144A006804905168134801F0A8
:100630000C03042B10D0082B0ED1C1F38343C90344
:100640001DF803000AD5516804AAC1F34041515C6A
:100650000A4A5043B0FBF1F005B0704708494843DF
:10066000FAE7000002030405060708090A0B0C0D4F
:100670000E0F1010010200000010024000127A005C
:1006800000093D002DE9F84F040070D02078C04DDE
:10069000C00749D06868C0F38100012807D06868A6
:1006A000C0F38100022809D16868C00306D5286814
:1006B000800339D560680028E7D035E06068B0F580
:1006C000803F0BD010B1B0F5A02F11D0286820F4D6
:1006D00080302860286820F4802002E0286840F4F8
:1006E00080302860606890B1FFF762FE06460AE03D
:1006F000286840F480202860F0E700BFFFF758FE2C
:10070000801B642873D828688003F7D50CE0FFF7B6
:100710004FFE064605E000BFFFF74AFE801B642837
:10072000F0D828688003F7D420789A4E80074FF0DD
:1007300001094FF0000839D5686810F00C0F07D098
:100740006868C0F38100022809D16868C00306D434
:100750002868800714D52069012808D110E0206995
:10076000B0B1C6F80090FFF723FE074605E00AE1A6
:10077000FFF71EFEC01B0228C4D828688007F7D5E3
:100780002868616920F0F80040EAC10028600DE0A7
:10079000C6F80080FFF70CFE074604E0FFF708FEEE
:1007A000C01B022823D828688007F7D420780007C8
:1007B0002CD57948A169D9B1C0F80090FFF7F8FDB0
:1007C000074604E0FFF7F4FDC01B02280FD8686A53
:1007D0008007F7D571484FF4FA510068B0FBF1F08B
:1007E000009000BF0098411E0091FAD20EE080E018
:1007F000C0F80080FFF7DCFD074604E0FFF7D8FDF6
:10080000C01B022875D8686A8007F7D42078400793
:1008100060D5E8690027C00008D4E86940F080503E
:10082000E861E869012700F0805000905C480168A9
:10083000C90513D40168834641F480710160FFF754
:10084000B7FD824606E000BFFFF7B2FDA0EB0A004D
:1008500064284ED8DBF80000C005F5D5E068012813
:100860000AD008B1052813D0286A20F001002862B8
:10087000286A20F0040002E0286A40F001002862A3
:10088000E06841F2883B98B1FFF792FD82460BE0A9
:10089000286A40F004002862EEE700BFFFF788FDF9
:1008A000A0EB0A0159455AD8286A8007F6D50CE012
:1008B000FFF77EFD824605E0FFF77AFDA0EB0A0117
:1008C00059454CD8286A8007F6D41FB1E86920F052
:1008D0008050E861E06988B36968C1F38101022949
:1008E00044D00228C6F8608004D0FFF761FD0446BA
:1008F00038E034E0FFF75CFD074604E0FFF758FD01
:10090000C01B02282BD828688001F7D4206AB0F5D4
:10091000803F05D16868A16820F400300843686012
:10092000D4E908010843696821F474110843686038
:10093000C6F86090FFF73CFD044606E025E000BFE6
:10094000FFF736FD001B022809D828688001F7D57B
:100950001BE000BFFFF72CFD001B022802D903207B
:10096000BDE8F88F28688001F4D40EE00128F7D0A4
:100970006868226A00F48031914204D1616A00F40F
:100980007010884201D00120EAE70020E8E700006B
:100990000010024000004242800442420C0000204D
:1009A0000070004010B5401EB0F1807F01D30120DF
:1009B00010BD4FF0E02460610F21601700F0B6FC1D
:1009C0000020A06107202061002010BD7047704703
:1009D00070B590F83C20012A26D0012480F83C40D4
:1009E000022280F83D2003685A689D6822F0700654
:1009F0000A6832435A600D4B02689A4208D0B2F13D
:100A0000804F05D00A4B9A4202D00A4B9A4204D139
:100A1000496825F080031943916080F83D4000212A
:100A200080F83C10084670BD022070BD002C0140CB
:100A3000000400400008004010B5040003D094F802
:100A40003D0010B107E0012010BD002084F83C00FB
:100A5000204600F01FF8022084F83D00211D206888
:100A600000F048FB012084F8460084F83E0084F83A
:100A70003F0084F8400084F8410084F8420084F884
:100A8000430084F8440084F8450084F83D000020C9
:100A900010BD000008B500680B49884212D10B4810
:100AA000C16941F00201C161C069002200F0020089
:100AB000009011461D20FFF7E7FCBDE808401D200F
:100AC000FFF7D4BC08BD0000000400400010024045
:100AD00090F83D10012901D001207047022180F8D3
:100AE0003D100168CA6842F00102CA6000680B4903
:100AF000884208D0B0F1804F05D00949884202D021
:100B00000849884204D1816801F00701062903D011
:100B1000016841F00101016000207047002C014094
:100B2000000400400008004070B5044690F83C0006
:100B3000012817D0012584F83C50022084F83D009C
:100B40002068826822F0770222F47F42826008687F
:100B5000502830D00DDC20284DD005DC98B310286B
:100B60003BD148E0022070BD302844D0402834D129
:100B700039E0602828D0702806D0B0F5805F2CD0EE
:100B8000B0F5005F29D10AE0CB68D1E901212068E6
:100B900000F0F3FA2068816841F0770109E0CB6842
:100BA000D1E90121206800F0E8FA2068816841F469
:100BB0008041816011E0CA684968206800F092FBBA
:100BC0005021206807E016E0CA684968206800F0F4
:100BD0009AFB6021206800F0DAFA84F83D5000208A
:100BE00084F83C0070BDCA684968206800F07AFB50
:100BF00040212068EFE7226801461046EBE7704786
:100C000070B50446006801694FF00005C9438907C3
:100C100015D4C168C943890711D4E91E01610120B7
:100C20002077206880698007204602D0FFF7E7FF21
:100C300004E000F0E3F8204600F02AF92577206868
:100C40000169C943490717D4C168C943490713D487
:100C50006FF004010161022020772068806910F4A0
:100C6000407F204602D0FFF7CAFF04E000F0C6F83C
:100C7000204600F00DF9257720680169C94309076E
:100C800016D4C168C943090712D46FF00801016185
:100C9000042020772068C0698007204602D0FFF733
:100CA000AEFF04E000F0AAF8204600F0F1F8257746
:100CB00020680169C943C90617D4C168C943C90678
:100CC00013D46FF010010161082020772068C069FB
:100CD00010F4407F204602D0FFF791FF04E000F0BF
:100CE0008DF8204600F0D4F8257720680169C943C3
:100CF000C90708D1C168C943C90704D1891E016168
:100D0000204600F015F920680169C943090609D495
:100D1000C168C943090605D46FF08001016120460E
:100D2000FFF754FE20680169C943490609D4C16828
:100D3000C943490605D46FF040010161204600F027
:100D400015F920680169C94389060BD4C168C943F4
:100D5000890607D46FF0200101612046BDE870408C
:100D6000FFF735BE70BD000000B585B000210091D1
:100D70000191029103910068B0F1804F11D10A48AE
:100D8000816941F0040181618069022100F0040061
:100D900004900120CDE90001039069460348FFF764
:100DA00017FA05B000BD0000001002400008014025
:100DB00010B5044690F83C0001280AD0012084F8C0
:100DC0003C0042B1042A0AD0082A0CD00C2A11D1C6
:100DD0000DE0022010BD206800F0E2F90AE0206872
:100DE00000F006FA06E0206800F02EFA02E0206823
:100DF00000F056FA002084F83C0010BD704710B592
:100E0000040003D094F83D0010B107E0012010BDAC
:100E1000002084F83C00204600F01EF8022084F8F0
:100E20003D00211D206800F065F9012084F846008E
:100E300084F83E0084F83F0084F8400084F84100C4
:100E400084F8420084F8430084F8440084F84500A4
:100E500084F83D00002010BD08B50068B0F1804F57
:100E600012D10A48C16941F00101C161C069002283
:100E700000F00100009011461C20FFF705FBBDE8C3
:100E800008401C20FFF7F2BA08BD00000010024025
:100E90007047000010B50446022249B104290ED063
:100EA000082913D094F84100012816D0012010BD64
:100EB00094F83E000128F9D184F83E200FE094F820
:100EC0003F000128F2D184F83F2008E094F8400068
:100ED0000128EBD184F8402001E084F84120012270
:100EE000206800F03DF90F492068884203D1426C28
:100EF00042F4004242642068884208D0B0F1804F3A
:100F000005D00949884202D00849884204D1816845
:100F100001F00701062903D0016841F001010160D9
:100F2000002010BD002C01400004004000080040DB
:100F300010B501680A48026891420DD10948C1689C
:100F4000002909D08168084B491C816044681C5DF8
:100F500000238C4201D1836010BD536310BD00009B
:100F6000E4010020100000202C0200207047FEE762
:100F7000094808B5816941F020018161816901F06A
:100F800020010091816941F004018161806900F0D4
:100F90000400009008BD00000010024010B58AB0A7
:100FA000002407941C2168460894FFF7C4F81548EC
:100FB0004FF0804101601121C0E9011440F2CF716E
:100FC000C0E903148461FFF71AFF08B1FFF7FDF8C9
:100FD000079407A90B480894FFF7FAFC08B1FFF73C
:100FE000F4F80094019402940022694605480494A0
:100FF000FFF7DEFE08B1FFF7E8F80248FFF7B4FE9E
:101000000AB010BD9C01002010B586B0002417481E
:10101000009401940294039404941349059401608C
:1010200040F20771C0E9011442F20F71C0E90314E4
:101030008461FFF701FD08B1FFF7C7F84FF4805056
:10104000009069460948FFF76FFD08B1FFF7BDF84A
:10105000049404A905480594FFF7BAFC002801D0C0
:10106000FFF7B3F806B010BD00040040E401002013
:10107000FEE7FEE770477047FFF7A0B930B58FB0C5
:1010800028216846FFF757F814210AA8FFF753F8FC
:1010900001210804CDE900100024029402250491E6
:1010A000CDE907504FF4E01009906846FFF7EAFADF
:1010B00008B172B6FEE70F20CDE90A054FF4806053
:1010C000CDE90C4002210AA80E94FFF70FFA002880
:1010D00001D072B6FEE70FB030BD70470148FFF790
:1010E0008FBD00009C0100200148FFF789BD000072
:1010F000E4010020F0B50268164B174C174D4FF075
:101100008047984205D0B84203D0A04201D0A842FF
:1011100003D122F070064A683243984205D0B842A3
:1011200003D0A04201D0A84203D122F44074CA687F
:1011300022434C6922F08002224302608A68C26224
:101140000A688262984201D1096901630121416103
:10115000F0BD0000002C01400004004000080040E9
:1011600010B501F01F030121046A99408C43046209
:10117000016A9A401143016210BD10B5846842EAC9
:10118000032224F47F440A432243826010BD826814
:1011900022F070020A4342F00701816070470000AC
:1011A00030B5026A22F001020262026A4368846971
:1011B00024F073050C682C4322F002058A682A4348
:1011C0000A4DA8420BD122F00805CA6823F44073E7
:1011D0002A434D6922F004021D438B692B4343606F
:1011E000846149684163026230BD0000002C014007
:1011F00030B5026A22F010020262026A4368846912
:101200000D6824F4E64444EA05248D6822F02002A7
:1012100042EA05120B4DA8420ED1CD6822F08002A1
:1012200042EA05124D6923F4406343EA85038D6960
:1012300022F0400243EA8503436084614968816388
:10124000026230BD002C014030B5026A22F4807287
:101250000262036A4268C46923F4007324F07305D0
:101260000C682C438D6843EA05230C4DA8420ED12F
:10127000CD6823F4006343EA05234D6922F440520C
:1012800042EA05128D6923F4806342EA0512426046
:10129000C4614968C163036230BD0000002C014095
:1012A00030B5026A22F480520262046A4268C3695D
:1012B0000D6823F4E64343EA05238D6824F40054C3
:1012C00044EA0534064DA84204D14D6922F4804217
:1012D00042EA85124260C36149680164046230BD1C
:1012E000002C014010B5036A046A24F00104046272
:1012F000846924F0F00444EA021423F00A020A4349
:101300008461026210BD10B5036A23F0100303620A
:101310008369046A23F4704343EA023224F0A00391
:1013200043EA01118261016210BDFEE70907090E5F
:10133000002804DB00F1E02080F80014704700F082
:101340000F0000F1E02080F8141D704702E008C88B
:10135000121F08C1002AFAD170477047002001E02F
:1013600001C1121F002AFBD170470000FFF72EF8C1
:10137000FFF784FEFFF7FCFDFFF710FEFFF744FECA
:1013800000210348FFF786FD0248FFF7A1FBFEE7B7
:101390009C010020E401002000000000000000008B
:1013A0000102030406070809C81300080000002012
:1013B0009C01000070010008E01400089C0100205E
:1013C000640C00005C13000832018210031524F441
:1013D0001A06251A26041A4A041A5D041A88041AE1
:1013E000B8041AEE04230B021A4B041A93041ABA17
:1013F000042310031A70041ADC042316041A970439
:101400002326051A75042320061AE00423B8072DA5
:1014100001020301041C030405031F05060506035E
:1014200001061A04162A05037BFF02011A04031A97
:1014300001014B0202064912881E0D0E0F0E0F11FC
:101440000E0A0A0D0D0D0F0C0A0A0B0A0B0F0A0FDC
:101450000F0F0E0B0B0E0E1D2A0C1D1A0B0E18086B
:101460001010100F0F0D0E1028091011101113106D
:101470000C0C231813110D0F0E100F0C0C12111061
:101480000F110A11141313091F0F100F1013110D50
:10149000290C9811130F100E0D0D0E0DFF04040CE6
:1014A00004080814071B040C07F91618090808207B
:1014B00004080406081B2A10084A181519074A04CC
:1014C0001C1C08060C1A19011C1E140808292719CF
:1014D000051A080D4C1004140B292A1208000000EC
:04000005080000ED02
:00000001FF
